{
  "contractName": "Voting",
  "abi": [
    {
      "inputs": [],
      "payable": true,
      "stateMutability": "payable",
      "type": "constructor"
    },
    {
      "anonymous": false,
      "inputs": [
        {
          "indexed": false,
          "internalType": "address",
          "name": "_candidate",
          "type": "address"
        }
      ],
      "name": "eventNominationCantidate",
      "type": "event"
    },
    {
      "anonymous": false,
      "inputs": [
        {
          "indexed": false,
          "internalType": "address",
          "name": "_user",
          "type": "address"
        }
      ],
      "name": "eventRegisterUser",
      "type": "event"
    },
    {
      "anonymous": false,
      "inputs": [
        {
          "indexed": false,
          "internalType": "address",
          "name": "_candidate",
          "type": "address"
        },
        {
          "indexed": false,
          "internalType": "uint256",
          "name": "votosAcumulados",
          "type": "uint256"
        }
      ],
      "name": "eventVote",
      "type": "event"
    },
    {
      "constant": true,
      "inputs": [],
      "name": "timestamp",
      "outputs": [
        {
          "internalType": "uint256",
          "name": "",
          "type": "uint256"
        }
      ],
      "payable": false,
      "stateMutability": "view",
      "type": "function"
    },
    {
      "constant": true,
      "inputs": [
        {
          "internalType": "address",
          "name": "",
          "type": "address"
        }
      ],
      "name": "voters",
      "outputs": [
        {
          "internalType": "bool",
          "name": "quota",
          "type": "bool"
        },
        {
          "internalType": "bool",
          "name": "flag",
          "type": "bool"
        }
      ],
      "payable": false,
      "stateMutability": "view",
      "type": "function"
    },
    {
      "constant": false,
      "inputs": [],
      "name": "registerUser",
      "outputs": [],
      "payable": true,
      "stateMutability": "payable",
      "type": "function"
    },
    {
      "constant": false,
      "inputs": [
        {
          "internalType": "address",
          "name": "_candidate",
          "type": "address"
        }
      ],
      "name": "nominationCantidate",
      "outputs": [],
      "payable": false,
      "stateMutability": "nonpayable",
      "type": "function"
    },
    {
      "constant": false,
      "inputs": [
        {
          "internalType": "address",
          "name": "_candidate",
          "type": "address"
        }
      ],
      "name": "vote",
      "outputs": [],
      "payable": true,
      "stateMutability": "payable",
      "type": "function"
    }
  ],
  "bytecode": "0x608060405233600160046101000a81548173ffffffffffffffffffffffffffffffffffffffff021916908373ffffffffffffffffffffffffffffffffffffffff160217905550426000819055506000600160006101000a81548163ffffffff021916908363ffffffff160217905550610ce08061007d6000396000f3fe60806040526004361061004a5760003560e01c80634d3820eb1461004f5780636dd7d8ea14610059578063a3ec138d1461009d578063a967019114610111578063b80777ea14610162575b600080fd5b61005761018d565b005b61009b6004803603602081101561006f57600080fd5b81019080803573ffffffffffffffffffffffffffffffffffffffff16906020019092919050505061036b565b005b3480156100a957600080fd5b506100ec600480360360208110156100c057600080fd5b81019080803573ffffffffffffffffffffffffffffffffffffffff169060200190929190505050610810565b6040518083151515158152602001821515151581526020019250505060405180910390f35b34801561011d57600080fd5b506101606004803603602081101561013457600080fd5b81019080803573ffffffffffffffffffffffffffffffffffffffff16906020019092919050505061084e565b005b34801561016e57600080fd5b50610177610c2b565b6040518082815260200191505060405180910390f35b600260003373ffffffffffffffffffffffffffffffffffffffff1673ffffffffffffffffffffffffffffffffffffffff16815260200190815260200160002060000160019054906101000a900460ff1615610250576040517f08c379a000000000000000000000000000000000000000000000000000000000815260040180806020018281038252601a8152602001807f50726576696f75736c792072656769737465726564207573657200000000000081525060200191505060405180910390fd5b6001600260003373ffffffffffffffffffffffffffffffffffffffff1673ffffffffffffffffffffffffffffffffffffffff16815260200190815260200160002060000160006101000a81548160ff0219169083151502179055506001600260003373ffffffffffffffffffffffffffffffffffffffff1673ffffffffffffffffffffffffffffffffffffffff16815260200190815260200160002060000160016101000a81548160ff0219169083151502179055507f81ebf294fa84f92584534787c1c1e919c1b9f67fafd4f45eb85661b482b96e5c33604051808273ffffffffffffffffffffffffffffffffffffffff1673ffffffffffffffffffffffffffffffffffffffff16815260200191505060405180910390a1565b80600260003373ffffffffffffffffffffffffffffffffffffffff1673ffffffffffffffffffffffffffffffffffffffff16815260200190815260200160002060000160009054906101000a900460ff1661042e576040517f08c379a00000000000000000000000000000000000000000000000000000000081526004018080602001828103825260168152602001807f557365722070726576696f75736c7920766f746564200000000000000000000081525060200191505060405180910390fd5b600260003373ffffffffffffffffffffffffffffffffffffffff1673ffffffffffffffffffffffffffffffffffffffff16815260200190815260200160002060000160019054906101000a900460ff166104f0576040517f08c379a000000000000000000000000000000000000000000000000000000000815260040180806020018281038252601f8152602001807f766f746572206e6f742070726576696f75736c7920726567697374657265640081525060200191505060405180910390fd5b600360008273ffffffffffffffffffffffffffffffffffffffff1673ffffffffffffffffffffffffffffffffffffffff16815260200190815260200160002060010160009054906101000a900460ff16610595576040517f08c379a0000000000000000000000000000000000000000000000000000000008152600401808060200182810382526023815260200180610c656023913960400191505060405180910390fd5b3373ffffffffffffffffffffffffffffffffffffffff168173ffffffffffffffffffffffffffffffffffffffff161415610637576040517f08c379a00000000000000000000000000000000000000000000000000000000081526004018080602001828103825260108152602001807f63616e6e6f742073656c662d766f74650000000000000000000000000000000081525060200191505060405180910390fd5b62093a806000544203106106b3576040517f08c379a000000000000000000000000000000000000000000000000000000000815260040180806020018281038252601c8152602001807f6f6e65207765656b20746f20766f74652068617320657870697265640000000081525060200191505060405180910390fd5b6001600360008473ffffffffffffffffffffffffffffffffffffffff1673ffffffffffffffffffffffffffffffffffffffff168152602001908152602001600020600001600082825401925050819055506000600260003373ffffffffffffffffffffffffffffffffffffffff1673ffffffffffffffffffffffffffffffffffffffff16815260200190815260200160002060000160006101000a81548160ff0219169083151502179055507ff8e7b936c5085a906f1879e800c0a3b1c632578fd96e03c67d5723366f09ae8282600360008573ffffffffffffffffffffffffffffffffffffffff1673ffffffffffffffffffffffffffffffffffffffff16815260200190815260200160002060000154604051808373ffffffffffffffffffffffffffffffffffffffff1673ffffffffffffffffffffffffffffffffffffffff1681526020018281526020019250505060405180910390a15050565b60026020528060005260406000206000915090508060000160009054906101000a900460ff16908060000160019054906101000a900460ff16905082565b600160049054906101000a900473ffffffffffffffffffffffffffffffffffffffff1673ffffffffffffffffffffffffffffffffffffffff163373ffffffffffffffffffffffffffffffffffffffff1614610911576040517f08c379a00000000000000000000000000000000000000000000000000000000081526004018080602001828103825260138152602001807f43616c6c6572206973206e6f74206f776e65720000000000000000000000000081525060200191505060405180910390fd5b80600260008273ffffffffffffffffffffffffffffffffffffffff1673ffffffffffffffffffffffffffffffffffffffff16815260200190815260200160002060000160019054906101000a900460ff166109b7576040517f08c379a0000000000000000000000000000000000000000000000000000000008152600401808060200182810382526033815260200180610c326033913960400191505060405180910390fd5b600360008273ffffffffffffffffffffffffffffffffffffffff1673ffffffffffffffffffffffffffffffffffffffff16815260200190815260200160002060010160009054906101000a900460ff1615610a7a576040517f08c379a000000000000000000000000000000000000000000000000000000000815260040180806020018281038252601b8152602001807f43616e64696461746520616c7265616479206e6f6d696e61746564000000000081525060200191505060405180910390fd5b6005600160009054906101000a900463ffffffff1663ffffffff1610610aeb576040517f08c379a0000000000000000000000000000000000000000000000000000000008152600401808060200182810382526024815260200180610c886024913960400191505060405180910390fd5b6000600360008473ffffffffffffffffffffffffffffffffffffffff1673ffffffffffffffffffffffffffffffffffffffff168152602001908152602001600020600001819055506001600360008473ffffffffffffffffffffffffffffffffffffffff1673ffffffffffffffffffffffffffffffffffffffff16815260200190815260200160002060010160006101000a81548160ff02191690831515021790555060018060008282829054906101000a900463ffffffff160192506101000a81548163ffffffff021916908363ffffffff1602179055507ff06c1eeaa421026f53df49f5347978bc7fb86b55b993e4047ffc755ca986dde882604051808273ffffffffffffffffffffffffffffffffffffffff1673ffffffffffffffffffffffffffffffffffffffff16815260200191505060405180910390a15050565b6000548156fe43616e646964617465206e6f742070726576696f75736c792072656769737465726564206173206120766f7465722f7573657243616e646964617465206e6f742070726576696f75736c79207265676973746572656446696e697368656420746865203520617661696c61626c65206e6f6d696e6174696f6e73a265627a7a72315820d11d080886168cdc5575ae6bd2231547d7ebde3771a7f517e3c40c937b264eff64736f6c63430005100032",
  "source": "// SPDX-License-Identifier: GPL-3.0\n\npragma solidity >=0.4.22 <0.9.0;\n\n\ncontract Voting{\n\n    uint256 public timestamp;\n    uint32 number_candidates;\n    address owner;\n    \n    mapping(address => voter) public voters;\n\n    struct voter {\n        bool quota;\n        bool flag;\n    }\n    mapping(address => candidate) private candidates;\n\n    struct candidate {\n        uint256 number_votes;\n        bool flag;\n    }\n\n    constructor() payable public{\n\n        owner = msg.sender;\n        timestamp = block.timestamp;\n        number_candidates = 0; \n\n    }\n\n\n\n\n    //Validation of user/voter registration \n    modifier validateUserRegistration{\n        require(!voters[msg.sender].flag, \"Previously registered user\");\n        _;\n    }\n\n    //User/voter registration event\n    event eventRegisterUser(address _user);\n\n    //User registration function\n    function registerUser()payable public validateUserRegistration{  \n\n        voters[msg.sender].quota = true;\n        voters[msg.sender].flag = true;\n        emit eventRegisterUser(msg.sender);\n\n    }\n\n\n\n\n    //Validate that only the owner can access the function\n    modifier onlyOwner{\n        require(msg.sender == owner, \"Caller is not owner\");\n        _;\n    }\n\n    //Candidate nomination validations\n    modifier validateNominationCantidate(address _candidate){\n        require(voters[_candidate].flag, \"Candidate not previously registered as a voter/user\");\n        require(!candidates[_candidate].flag, \"Candidate already nominated\");\n        require(number_candidates < 5,\"Finished the 5 available nominations\");\n        _;\n    }\n\n    //Candidate registration event\n    event eventNominationCantidate(address _candidate);\n\n    //Candidate nomination function \n    function nominationCantidate(address _candidate)public onlyOwner  validateNominationCantidate(_candidate){ \n        \n        candidates[_candidate].number_votes = 0;\n        candidates[_candidate].flag = true;\n        number_candidates += 1;\n        emit eventNominationCantidate(_candidate);\n    \n    }\n\n\n\n\n    //Vote validations\n    modifier validateVoto(address _candidate){\n        require(voters[msg.sender].quota, \"User previously voted \");\n        require(voters[msg.sender].flag, \"voter not previously registered\");\n        require(candidates[_candidate].flag, \"Candidate not previously registered\");\n        require(_candidate != msg.sender, \"cannot self-vote\");\n        require(block.timestamp - timestamp < 7 days, \"one week to vote has expired\");\n        _;\n    }\n\n    //Voting event\n    event eventVote(address _candidate , uint256 votosAcumulados);\n    \n    //Voting function\n    function vote(address _candidate)payable public validateVoto(_candidate){\n\n        candidates[_candidate].number_votes += 1;\n        voters[msg.sender].quota = false;\n        emit eventVote(_candidate, candidates[_candidate].number_votes);\n\n    }\n\n}\n",
  "sourcePath": "/home/alvaradof/cursoSolidity/Voting/contracts/Voting.sol",
  "compiler": {
    "name": "solc",
    "version": "0.5.16+commit.9c3226ce.Emscripten.clang"
  },
  "schemaVersion": "3.4.4",
  "updatedAt": "2022-02-16T01:21:30.714Z",
  "devdoc": {
    "methods": {}
  },
  "userdoc": {
    "methods": {}
  }
}